{
  "_format": "hh-sol-artifact-1",
  "contractName": "SocialIDs",
  "sourceName": "contracts/SocialIDs.sol",
  "abi": [
    {
      "inputs": [],
      "stateMutability": "nonpayable",
      "type": "constructor"
    },
    {
      "inputs": [
        {
          "internalType": "address",
          "name": "_user",
          "type": "address"
        }
      ],
      "name": "getFacebookID",
      "outputs": [
        {
          "internalType": "string",
          "name": "",
          "type": "string"
        }
      ],
      "stateMutability": "view",
      "type": "function"
    },
    {
      "inputs": [
        {
          "internalType": "address",
          "name": "_user",
          "type": "address"
        }
      ],
      "name": "getLinkedinID",
      "outputs": [
        {
          "internalType": "string",
          "name": "",
          "type": "string"
        }
      ],
      "stateMutability": "view",
      "type": "function"
    },
    {
      "inputs": [
        {
          "internalType": "address",
          "name": "_user",
          "type": "address"
        }
      ],
      "name": "getTwitterID",
      "outputs": [
        {
          "internalType": "string",
          "name": "",
          "type": "string"
        }
      ],
      "stateMutability": "view",
      "type": "function"
    },
    {
      "inputs": [],
      "name": "owner",
      "outputs": [
        {
          "internalType": "address",
          "name": "",
          "type": "address"
        }
      ],
      "stateMutability": "view",
      "type": "function"
    },
    {
      "inputs": [
        {
          "internalType": "address",
          "name": "_user",
          "type": "address"
        },
        {
          "internalType": "string",
          "name": "_id",
          "type": "string"
        }
      ],
      "name": "setFacebookID",
      "outputs": [],
      "stateMutability": "nonpayable",
      "type": "function"
    },
    {
      "inputs": [
        {
          "internalType": "address",
          "name": "_user",
          "type": "address"
        },
        {
          "internalType": "string",
          "name": "_id",
          "type": "string"
        }
      ],
      "name": "setLinkedinID",
      "outputs": [],
      "stateMutability": "nonpayable",
      "type": "function"
    },
    {
      "inputs": [
        {
          "internalType": "address",
          "name": "_user",
          "type": "address"
        },
        {
          "internalType": "string",
          "name": "_id",
          "type": "string"
        }
      ],
      "name": "setTwitterID",
      "outputs": [],
      "stateMutability": "nonpayable",
      "type": "function"
    }
  ],
  "bytecode": "0x608060405234801561001057600080fd5b50336000806101000a81548173ffffffffffffffffffffffffffffffffffffffff021916908373ffffffffffffffffffffffffffffffffffffffff160217905550610d4e806100606000396000f3fe608060405234801561001057600080fd5b506004361061007d5760003560e01c80634dc34f681161005b5780634dc34f68146100d65780636bd5a10b146101065780638da5cb5b14610136578063e20f27c3146101545761007d565b80631fa8593b14610082578063286949ed1461009e57806333c727ac146100ba575b600080fd5b61009c60048036038101906100979190610870565b610184565b005b6100b860048036038101906100b39190610870565b610263565b005b6100d460048036038101906100cf9190610870565b610342565b005b6100f060048036038101906100eb91906108cc565b610421565b6040516100fd9190610978565b60405180910390f35b610120600480360381019061011b91906108cc565b6104f2565b60405161012d9190610978565b60405180910390f35b61013e6105c3565b60405161014b91906109a9565b60405180910390f35b61016e600480360381019061016991906108cc565b6105e7565b60405161017b9190610978565b60405180910390f35b60008054906101000a900473ffffffffffffffffffffffffffffffffffffffff1673ffffffffffffffffffffffffffffffffffffffff163373ffffffffffffffffffffffffffffffffffffffff1614610212576040517f08c379a000000000000000000000000000000000000000000000000000000000815260040161020990610a10565b60405180910390fd5b80600160008473ffffffffffffffffffffffffffffffffffffffff1673ffffffffffffffffffffffffffffffffffffffff168152602001908152602001600020908161025e9190610c46565b505050565b60008054906101000a900473ffffffffffffffffffffffffffffffffffffffff1673ffffffffffffffffffffffffffffffffffffffff163373ffffffffffffffffffffffffffffffffffffffff16146102f1576040517f08c379a00000000000000000000000000000000000000000000000000000000081526004016102e890610a10565b60405180910390fd5b80600260008473ffffffffffffffffffffffffffffffffffffffff1673ffffffffffffffffffffffffffffffffffffffff168152602001908152602001600020908161033d9190610c46565b505050565b60008054906101000a900473ffffffffffffffffffffffffffffffffffffffff1673ffffffffffffffffffffffffffffffffffffffff163373ffffffffffffffffffffffffffffffffffffffff16146103d0576040517f08c379a00000000000000000000000000000000000000000000000000000000081526004016103c790610a10565b60405180910390fd5b80600360008473ffffffffffffffffffffffffffffffffffffffff1673ffffffffffffffffffffffffffffffffffffffff168152602001908152602001600020908161041c9190610c46565b505050565b6060600160008373ffffffffffffffffffffffffffffffffffffffff1673ffffffffffffffffffffffffffffffffffffffff168152602001908152602001600020805461046d90610a5f565b80601f016020809104026020016040519081016040528092919081815260200182805461049990610a5f565b80156104e65780601f106104bb576101008083540402835291602001916104e6565b820191906000526020600020905b8154815290600101906020018083116104c957829003601f168201915b50505050509050919050565b6060600360008373ffffffffffffffffffffffffffffffffffffffff1673ffffffffffffffffffffffffffffffffffffffff168152602001908152602001600020805461053e90610a5f565b80601f016020809104026020016040519081016040528092919081815260200182805461056a90610a5f565b80156105b75780601f1061058c576101008083540402835291602001916105b7565b820191906000526020600020905b81548152906001019060200180831161059a57829003601f168201915b50505050509050919050565b60008054906101000a900473ffffffffffffffffffffffffffffffffffffffff1681565b6060600260008373ffffffffffffffffffffffffffffffffffffffff1673ffffffffffffffffffffffffffffffffffffffff168152602001908152602001600020805461063390610a5f565b80601f016020809104026020016040519081016040528092919081815260200182805461065f90610a5f565b80156106ac5780601f10610681576101008083540402835291602001916106ac565b820191906000526020600020905b81548152906001019060200180831161068f57829003601f168201915b50505050509050919050565b6000604051905090565b600080fd5b600080fd5b600073ffffffffffffffffffffffffffffffffffffffff82169050919050565b60006106f7826106cc565b9050919050565b610707816106ec565b811461071257600080fd5b50565b600081359050610724816106fe565b92915050565b600080fd5b600080fd5b6000601f19601f8301169050919050565b7f4e487b7100000000000000000000000000000000000000000000000000000000600052604160045260246000fd5b61077d82610734565b810181811067ffffffffffffffff8211171561079c5761079b610745565b5b80604052505050565b60006107af6106b8565b90506107bb8282610774565b919050565b600067ffffffffffffffff8211156107db576107da610745565b5b6107e482610734565b9050602081019050919050565b82818337600083830152505050565b600061081361080e846107c0565b6107a5565b90508281526020810184848401111561082f5761082e61072f565b5b61083a8482856107f1565b509392505050565b600082601f8301126108575761085661072a565b5b8135610867848260208601610800565b91505092915050565b60008060408385031215610887576108866106c2565b5b600061089585828601610715565b925050602083013567ffffffffffffffff8111156108b6576108b56106c7565b5b6108c285828601610842565b9150509250929050565b6000602082840312156108e2576108e16106c2565b5b60006108f084828501610715565b91505092915050565b600081519050919050565b600082825260208201905092915050565b60005b83811015610933578082015181840152602081019050610918565b60008484015250505050565b600061094a826108f9565b6109548185610904565b9350610964818560208601610915565b61096d81610734565b840191505092915050565b60006020820190508181036000830152610992818461093f565b905092915050565b6109a3816106ec565b82525050565b60006020820190506109be600083018461099a565b92915050565b7f4f6e6c79206f776e65722063616e2063616c6c00000000000000000000000000600082015250565b60006109fa601383610904565b9150610a05826109c4565b602082019050919050565b60006020820190508181036000830152610a29816109ed565b9050919050565b7f4e487b7100000000000000000000000000000000000000000000000000000000600052602260045260246000fd5b60006002820490506001821680610a7757607f821691505b602082108103610a8a57610a89610a30565b5b50919050565b60008190508160005260206000209050919050565b60006020601f8301049050919050565b600082821b905092915050565b600060088302610af27fffffffffffffffffffffffffffffffffffffffffffffffffffffffffffffffff82610ab5565b610afc8683610ab5565b95508019841693508086168417925050509392505050565b6000819050919050565b6000819050919050565b6000610b43610b3e610b3984610b14565b610b1e565b610b14565b9050919050565b6000819050919050565b610b5d83610b28565b610b71610b6982610b4a565b848454610ac2565b825550505050565b600090565b610b86610b79565b610b91818484610b54565b505050565b5b81811015610bb557610baa600082610b7e565b600181019050610b97565b5050565b601f821115610bfa57610bcb81610a90565b610bd484610aa5565b81016020851015610be3578190505b610bf7610bef85610aa5565b830182610b96565b50505b505050565b600082821c905092915050565b6000610c1d60001984600802610bff565b1980831691505092915050565b6000610c368383610c0c565b9150826002028217905092915050565b610c4f826108f9565b67ffffffffffffffff811115610c6857610c67610745565b5b610c728254610a5f565b610c7d828285610bb9565b600060209050601f831160018114610cb05760008415610c9e578287015190505b610ca88582610c2a565b865550610d10565b601f198416610cbe86610a90565b60005b82811015610ce657848901518255600182019150602085019450602081019050610cc1565b86831015610d035784890151610cff601f891682610c0c565b8355505b6001600288020188555050505b50505050505056fea2646970667358221220257106a0ee10c127170fcb74b97015450848feaec9cfc6c92178924be7eded4364736f6c63430008120033",
  "linkReferences": {},
  "deployedLinkReferences": {}
}