{
  "_format": "hh-sol-artifact-1",
  "contractName": "LinkThreeProfile",
  "sourceName": "contracts/LinkThreeProfile.sol",
  "abi": [
    {
      "inputs": [],
      "stateMutability": "nonpayable",
      "type": "constructor"
    },
    {
      "inputs": [
        {
          "internalType": "address",
          "name": "_user",
          "type": "address"
        }
      ],
      "name": "getUserProfile",
      "outputs": [
        {
          "components": [
            {
              "internalType": "string",
              "name": "about",
              "type": "string"
            },
            {
              "internalType": "string",
              "name": "linkedin",
              "type": "string"
            },
            {
              "internalType": "string",
              "name": "twitter",
              "type": "string"
            },
            {
              "internalType": "string",
              "name": "github",
              "type": "string"
            }
          ],
          "internalType": "struct LinkThreeProfile.UserProfile",
          "name": "",
          "type": "tuple"
        }
      ],
      "stateMutability": "view",
      "type": "function"
    },
    {
      "inputs": [],
      "name": "owner",
      "outputs": [
        {
          "internalType": "address",
          "name": "",
          "type": "address"
        }
      ],
      "stateMutability": "view",
      "type": "function"
    },
    {
      "inputs": [
        {
          "internalType": "string",
          "name": "_about",
          "type": "string"
        }
      ],
      "name": "setAbout",
      "outputs": [],
      "stateMutability": "nonpayable",
      "type": "function"
    },
    {
      "inputs": [
        {
          "internalType": "string",
          "name": "_github",
          "type": "string"
        },
        {
          "internalType": "address",
          "name": "_user",
          "type": "address"
        }
      ],
      "name": "setGithub",
      "outputs": [],
      "stateMutability": "nonpayable",
      "type": "function"
    },
    {
      "inputs": [
        {
          "internalType": "string",
          "name": "_linkedin",
          "type": "string"
        },
        {
          "internalType": "address",
          "name": "_user",
          "type": "address"
        }
      ],
      "name": "setLinkedin",
      "outputs": [],
      "stateMutability": "nonpayable",
      "type": "function"
    },
    {
      "inputs": [
        {
          "internalType": "string",
          "name": "_twitter",
          "type": "string"
        },
        {
          "internalType": "address",
          "name": "_user",
          "type": "address"
        }
      ],
      "name": "setTwitter",
      "outputs": [],
      "stateMutability": "nonpayable",
      "type": "function"
    }
  ],
  "bytecode": "0x608060405234801561001057600080fd5b50336000806101000a81548173ffffffffffffffffffffffffffffffffffffffff021916908373ffffffffffffffffffffffffffffffffffffffff160217905550610e73806100606000396000f3fe608060405234801561001057600080fd5b50600436106100625760003560e01c80630f40c7a9146100675780638da5cb5b14610083578063987ee156146100a1578063b95c7c6a146100d1578063c5093acd146100ed578063d04d566a14610109575b600080fd5b610081600480360381019061007c91906108c3565b610125565b005b61008b610207565b604051610098919061092e565b60405180910390f35b6100bb60048036038101906100b69190610949565b61022b565b6040516100c89190610a6d565b60405180910390f35b6100eb60048036038101906100e691906108c3565b6104cc565b005b610107600480360381019061010291906108c3565b6105ae565b005b610123600480360381019061011e9190610a8f565b610690565b005b60008054906101000a900473ffffffffffffffffffffffffffffffffffffffff1673ffffffffffffffffffffffffffffffffffffffff163373ffffffffffffffffffffffffffffffffffffffff16146101b3576040517f08c379a00000000000000000000000000000000000000000000000000000000081526004016101aa90610b35565b60405180910390fd5b81600160008373ffffffffffffffffffffffffffffffffffffffff1673ffffffffffffffffffffffffffffffffffffffff16815260200190815260200160002060020190816102029190610d6b565b505050565b60008054906101000a900473ffffffffffffffffffffffffffffffffffffffff1681565b6102336106e3565b600160008373ffffffffffffffffffffffffffffffffffffffff1673ffffffffffffffffffffffffffffffffffffffff16815260200190815260200160002060405180608001604052908160008201805461028d90610b84565b80601f01602080910402602001604051908101604052809291908181526020018280546102b990610b84565b80156103065780601f106102db57610100808354040283529160200191610306565b820191906000526020600020905b8154815290600101906020018083116102e957829003601f168201915b5050505050815260200160018201805461031f90610b84565b80601f016020809104026020016040519081016040528092919081815260200182805461034b90610b84565b80156103985780601f1061036d57610100808354040283529160200191610398565b820191906000526020600020905b81548152906001019060200180831161037b57829003601f168201915b505050505081526020016002820180546103b190610b84565b80601f01602080910402602001604051908101604052809291908181526020018280546103dd90610b84565b801561042a5780601f106103ff5761010080835404028352916020019161042a565b820191906000526020600020905b81548152906001019060200180831161040d57829003601f168201915b5050505050815260200160038201805461044390610b84565b80601f016020809104026020016040519081016040528092919081815260200182805461046f90610b84565b80156104bc5780601f10610491576101008083540402835291602001916104bc565b820191906000526020600020905b81548152906001019060200180831161049f57829003601f168201915b5050505050815250509050919050565b60008054906101000a900473ffffffffffffffffffffffffffffffffffffffff1673ffffffffffffffffffffffffffffffffffffffff163373ffffffffffffffffffffffffffffffffffffffff161461055a576040517f08c379a000000000000000000000000000000000000000000000000000000000815260040161055190610b35565b60405180910390fd5b81600160008373ffffffffffffffffffffffffffffffffffffffff1673ffffffffffffffffffffffffffffffffffffffff16815260200190815260200160002060010190816105a99190610d6b565b505050565b60008054906101000a900473ffffffffffffffffffffffffffffffffffffffff1673ffffffffffffffffffffffffffffffffffffffff163373ffffffffffffffffffffffffffffffffffffffff161461063c576040517f08c379a000000000000000000000000000000000000000000000000000000000815260040161063390610b35565b60405180910390fd5b81600160008373ffffffffffffffffffffffffffffffffffffffff1673ffffffffffffffffffffffffffffffffffffffff168152602001908152602001600020600301908161068b9190610d6b565b505050565b80600160003373ffffffffffffffffffffffffffffffffffffffff1673ffffffffffffffffffffffffffffffffffffffff16815260200190815260200160002060000190816106df9190610d6b565b5050565b6040518060800160405280606081526020016060815260200160608152602001606081525090565b6000604051905090565b600080fd5b600080fd5b600080fd5b600080fd5b6000601f19601f8301169050919050565b7f4e487b7100000000000000000000000000000000000000000000000000000000600052604160045260246000fd5b61077282610729565b810181811067ffffffffffffffff821117156107915761079061073a565b5b80604052505050565b60006107a461070b565b90506107b08282610769565b919050565b600067ffffffffffffffff8211156107d0576107cf61073a565b5b6107d982610729565b9050602081019050919050565b82818337600083830152505050565b6000610808610803846107b5565b61079a565b90508281526020810184848401111561082457610823610724565b5b61082f8482856107e6565b509392505050565b600082601f83011261084c5761084b61071f565b5b813561085c8482602086016107f5565b91505092915050565b600073ffffffffffffffffffffffffffffffffffffffff82169050919050565b600061089082610865565b9050919050565b6108a081610885565b81146108ab57600080fd5b50565b6000813590506108bd81610897565b92915050565b600080604083850312156108da576108d9610715565b5b600083013567ffffffffffffffff8111156108f8576108f761071a565b5b61090485828601610837565b9250506020610915858286016108ae565b9150509250929050565b61092881610885565b82525050565b6000602082019050610943600083018461091f565b92915050565b60006020828403121561095f5761095e610715565b5b600061096d848285016108ae565b91505092915050565b600081519050919050565b600082825260208201905092915050565b60005b838110156109b0578082015181840152602081019050610995565b60008484015250505050565b60006109c782610976565b6109d18185610981565b93506109e1818560208601610992565b6109ea81610729565b840191505092915050565b60006080830160008301518482036000860152610a1282826109bc565b91505060208301518482036020860152610a2c82826109bc565b91505060408301518482036040860152610a4682826109bc565b91505060608301518482036060860152610a6082826109bc565b9150508091505092915050565b60006020820190508181036000830152610a8781846109f5565b905092915050565b600060208284031215610aa557610aa4610715565b5b600082013567ffffffffffffffff811115610ac357610ac261071a565b5b610acf84828501610837565b91505092915050565b600082825260208201905092915050565b7f4f6e6c79206f776e65722063616e2063616c6c00000000000000000000000000600082015250565b6000610b1f601383610ad8565b9150610b2a82610ae9565b602082019050919050565b60006020820190508181036000830152610b4e81610b12565b9050919050565b7f4e487b7100000000000000000000000000000000000000000000000000000000600052602260045260246000fd5b60006002820490506001821680610b9c57607f821691505b602082108103610baf57610bae610b55565b5b50919050565b60008190508160005260206000209050919050565b60006020601f8301049050919050565b600082821b905092915050565b600060088302610c177fffffffffffffffffffffffffffffffffffffffffffffffffffffffffffffffff82610bda565b610c218683610bda565b95508019841693508086168417925050509392505050565b6000819050919050565b6000819050919050565b6000610c68610c63610c5e84610c39565b610c43565b610c39565b9050919050565b6000819050919050565b610c8283610c4d565b610c96610c8e82610c6f565b848454610be7565b825550505050565b600090565b610cab610c9e565b610cb6818484610c79565b505050565b5b81811015610cda57610ccf600082610ca3565b600181019050610cbc565b5050565b601f821115610d1f57610cf081610bb5565b610cf984610bca565b81016020851015610d08578190505b610d1c610d1485610bca565b830182610cbb565b50505b505050565b600082821c905092915050565b6000610d4260001984600802610d24565b1980831691505092915050565b6000610d5b8383610d31565b9150826002028217905092915050565b610d7482610976565b67ffffffffffffffff811115610d8d57610d8c61073a565b5b610d978254610b84565b610da2828285610cde565b600060209050601f831160018114610dd55760008415610dc3578287015190505b610dcd8582610d4f565b865550610e35565b601f198416610de386610bb5565b60005b82811015610e0b57848901518255600182019150602085019450602081019050610de6565b86831015610e285784890151610e24601f891682610d31565b8355505b6001600288020188555050505b50505050505056fea26469706673582212207af820215797eaf77cc70eb050228fa7b6c1f89f40ac44527cb061bbd7b444a664736f6c63430008120033",
  "linkReferences": {},
  "deployedLinkReferences": {}
}